:020000040800F2
:1000000000500020AD2E0008952C00089D2C000803
:10001000A52C0008AD2C0008B52C0008000000003D
:10002000000000000000000000000000BD2C0008DF
:10003000C92C000800000000D52C0008E12C0008A5
:10004000F52E0008F52E0008F52E0008F52E000804
:10005000F52E0008F52E0008F52E0008ED2C0008FE
:10006000F52E0008FB2C0008F52E0008F52E0008E0
:10007000F52E0008F52E0008F52E0008F52E0008D4
:10008000F52E0008F52E0008F52E0008F52E0008C4
:10009000F52E0008F52E0008F52E0008F52E0008B4
:1000A000F52E0008F52E0008F52E0008F52E0008A4
:1000B000F52E0008F52E0008F52E0008F52E000894
:1000C000F52E0008F52E0008F52E0008F52E000884
:1000D000F52E0008F52E0008F52E0008F52E000874
:1000E000F52E0008092D0008F52E0008000000007C
:1000F0000000000000000000000000000000000000
:0C01000000000000000000005FF808F1A3
:1001100010B5054C237833B9044B13B10448AFF341
:1001200000800123237010BDDC01002000000000CE
:10013000DCA9000808B5034B1BB103490348AFF322
:10014000008008BD00000000E0010020DCA90008DC
:10015000034613F8012B002AFBD1181A0138704707
:1001600081F0004102E000BF83F0004330B54FEA68
:1001700041044FEA430594EA050F08BF90EA020FD5
:100180001FBF54EA000C55EA020C7FEA645C7FEA68
:10019000655C00F0E2804FEA5454D4EB5555B8BF8B
:1001A0006D420CDD2C4480EA020281EA030382EAFC
:1001B000000083EA010180EA020281EA0303362D8E
:1001C00088BF30BD11F0004F4FEA01314FF4801C61
:1001D0004CEA113102D0404261EB410113F0004F73
:1001E0004FEA03334CEA133302D0524263EB43032A
:1001F00094EA050F00F0A780A4F10104D5F1200EC8
:100200000DDB02FA0EFC22FA05F2801841F1000122
:1002100003FA0EF2801843FA05F359410EE0A5F1F6
:1002200020050EF1200E012A03FA0EFC28BF4CF027
:10023000020C43FA05F3C01851EBE37101F00045DD
:1002400007D54FF0000EDCF1000C7EEB00006EEBEA
:100250000101B1F5801F1BD3B1F5001F0CD3490874
:100260005FEA30004FEA3C0C04F101044FEA4452CB
:1002700012F5800F80F09A80BCF1004F08BF5FEA52
:10028000500C50F1000041EB045141EA050130BD32
:100290005FEA4C0C404141EB0101013C28BFB1F544
:1002A000801FE9D291F0000F04BF01460020B1FA8F
:1002B00081F308BF2033A3F10B03B3F120020CDA62
:1002C0000C3208DD02F1140CC2F10C0201FA0CF040
:1002D00021FA02F10CE002F11402D8BFC2F1200CA5
:1002E00001FA02F120FA0CFCDCBF41EA0C0190405B
:1002F000E41AA2BF01EB0451294330BD6FEA0404A4
:100300001F3C1CDA0C340EDC04F11404C4F120028E
:1003100020FA04F001FA02F340EA030021FA04F3A0
:1003200045EA030130BDC4F10C04C4F1200220FAF7
:1003300002F001FA04F340EA0300294630BD21FA35
:1003400004F0294630BD94F0000F83F4801306BFFB
:1003500081F480110134013D4EE77FEA645C18BFEF
:100360007FEA655C29D094EA050F08BF90EA020F86
:1003700005D054EA000C04BF1946104630BD91EA7E
:10038000030F1EBF0021002030BD5FEA545C05D181
:100390004000494128BF41F0004130BD14F58004C0
:1003A0003CBF01F5801130BD01F0004545F0FE4134
:1003B00041F470014FF0000030BD7FEA645C1ABF69
:1003C000194610467FEA655C1CBF0B46024650EAA0
:1003D000013406BF52EA033591EA030F41F40021CC
:1003E00030BD00BF90F0000F04BF0021704730B552
:1003F0004FF4806404F132044FF000054FF0000127
:1004000050E700BF90F0000F04BF0021704730B5E7
:100410004FF4806404F1320410F0004548BF4042BC
:100420004FF000013EE700BF42004FEAE2014FEA11
:1004300031014FEA02701FBF12F07F4393F07F4FEC
:1004400081F06051704732F07F4208BF704793F0EF
:100450007F4F04BF41F40021704730B54FF4607402
:1004600001F0004521F000411CE700BF50EA010205
:1004700008BF704730B54FF000050AE050EA0102AE
:1004800008BF704730B511F0004502D5404261EB1E
:1004900041014FF4806404F132045FEA915C3FF45F
:1004A000D8AE4FF003025FEADC0C18BF03325FEAFC
:1004B000DC0C18BF033202EBDC02C2F1200300FAAD
:1004C00003FC20FA02F001FA03FE40EA0E0021FAD2
:1004D00002F11444BDE600BF70B54FF0FF0C4CF4C0
:1004E000E06C1CEA11541DBF1CEA135594EA0C0F72
:1004F00095EA0C0F00F0DEF82C4481EA030621EAAD
:100500004C5123EA4C5350EA013518BF52EA0335E7
:1005100041F4801143F4801338D0A0FB02CE4FF099
:100520000005E1FB02E506F00042E0FB03E54FF0C9
:100530000006E1FB03569CF0000F18BF4EF0010EC1
:10054000A4F1FF04B6F5007F64F5407404D25FEABD
:100550004E0E6D4146EB060642EAC62141EA555170
:100560004FEAC52040EA5E504FEACE2EB4F1FD0CB2
:1005700088BFBCF5E06F1ED8BEF1004F08BF5FEA30
:10058000500E50F1000041EB045170BD06F00046E2
:1005900046EA010140EA020081EA0301B4EB5C048F
:1005A000C2BFD4EB0C0541EA045170BD41F4801187
:1005B0004FF0000E013C00F3AB8014F1360FDEBFAC
:1005C000002001F0004170BDC4F10004203C35DA88
:1005D0000C341BDC04F11404C4F1200500FA05F30B
:1005E00020FA04F001FA05F240EA020001F00042AC
:1005F00021F0004110EBD37021FA04F642EB060122
:100600005EEA430E08BF20EAD37070BDC4F10C044B
:10061000C4F1200500FA04F320FA05F001FA04F20F
:1006200040EA020001F0004110EBD37041F10001FB
:100630005EEA430E08BF20EAD37070BDC4F1200506
:1006400000FA05F24EEA020E20FA04F301FA05F26E
:1006500043EA020321FA04F001F0004121FA04F216
:1006600020EA020000EBD3705EEA430E08BF20EAE6
:10067000D37070BD94F0000F0FD101F00046400020
:1006800041EB010111F4801F08BF013CF7D041EAA2
:10069000060195F0000F18BF704703F000465200A6
:1006A00043EB030313F4801F08BF013DF7D043EA77
:1006B0000603704794EA0C0F0CEA135518BF95EA2D
:1006C0000C0F0CD050EA410618BF52EA4306D1D1B4
:1006D00081EA030101F000414FF0000070BD50EAD3
:1006E000410606BF1046194652EA430619D094EA5D
:1006F0000C0F02D150EA013613D195EA0C0F05D147
:1007000052EA03361CBF104619460AD181EA03019A
:1007100001F0004141F0FE4141F470014FF0000052
:1007200070BD41F0FE4141F4780170BD70B54FF0ED
:10073000FF0C4CF4E06C1CEA11541DBF1CEA13556D
:1007400094EA0C0F95EA0C0F00F0A7F8A4EB05044F
:1007500081EA030E52EA03354FEA013100F0888046
:100760004FEA03334FF0805545EA131343EA12630F
:100770004FEA022245EA111545EA10654FEA0026C4
:100780000EF000419D4208BF964244F1FD0404F57D
:10079000407402D25B084FEA3202B61A65EB0305D9
:1007A0005B084FEA32024FF480104FF4002CB6EB96
:1007B000020E75EB030E22BFB61A754640EA0C0016
:1007C0005B084FEA3202B6EB020E75EB030E22BF56
:1007D000B61A754640EA5C005B084FEA3202B6EB97
:1007E000020E75EB030E22BFB61A754640EA9C0056
:1007F0005B084FEA3202B6EB020E75EB030E22BF26
:10080000B61A754640EADC0055EA060E18D04FEAE3
:10081000051545EA16754FEA06164FEAC30343EA83
:1008200052734FEAC2025FEA1C1CC0D111F4801F50
:100830000BD141EA00014FF000004FF0004CB6E749
:1008400011F4801F04BF01430020B4F1FD0C88BFE8
:10085000BCF5E06F3FF6AFAEB5EB030C04BFB6EBF3
:10086000020C5FEA500C50F1000041EB045170BDE6
:100870000EF0004E4EEA113114EB5C04C2BFD4EB13
:100880000C0541EA045170BD41F480114FF0000E97
:10089000013C90E645EA060E8DE60CEA135594EA13
:1008A0000C0F08BF95EA0C0F3FF43BAF94EA0C0F16
:1008B0000AD150EA01347FF434AF95EA0C0F7FF48B
:1008C00025AF104619462CE795EA0C0F06D152EADF
:1008D00003353FF4FDAE1046194622E750EA4106C3
:1008E00018BF52EA43067FF4C5AE50EA41047FF4D4
:1008F0000DAF52EA43057FF4EBAE12E74FF0FF3C39
:1009000006E000BF4FF0010C02E000BF4FF0010C09
:100910004DF804CD4FEA410C7FEA6C5C4FEA430C82
:1009200018BF7FEA6C5C1BD001B050EA410C0CBFD1
:1009300052EA430C91EA030F02BF90EA020F002033
:10094000704710F1000F91EA030F58BF994208BF9A
:1009500090422CBFD8176FEAE37040F00100704757
:100960004FEA410C7FEA6C5C02D150EA013C07D1AE
:100970004FEA430C7FEA6C5CD6D152EA033CD3D0F9
:100980005DF8040B704700BF8446104662468C46F3
:100990001946634600E000BF01B5FFF7B7FF002826
:1009A00048BF10F1000F01BD4DF808EDFFF7F4FF4F
:1009B0000CBF012000205DF808FB00BF4DF808EDDA
:1009C000FFF7EAFF34BF012000205DF808FB00BFFD
:1009D0004DF808EDFFF7E0FF94BF012000205DF81F
:1009E00008FB00BF4DF808EDFFF7CEFF94BF0120D4
:1009F00000205DF808FB00BF4DF808EDFFF7C4FFCD
:100A000034BF012000205DF808FB00BF4FEA410C15
:100A10007FEA6C5C02D150EA013C0AD14FEA430CF8
:100A20007FEA6C5C02D152EA033C02D14FF0000035
:100A300070474FF0010070474FEA410212F5001273
:100A400015D211D56FF47873B3EB625212D94FEA15
:100A5000C12343F0004343EA505311F0004F23FAFF
:100A600002F018BF404270474FF00000704750EA54
:100A7000013005D111F0004008BF6FF00040704711
:100A80004FF00000704700BF4A0011D212F500126B
:100A900011D20DD56FF47873B3EB62520ED44FEAD6
:100AA000C12343F0004343EA505323FA02F0704756
:100AB0004FF00000704750EA013002D14FF0FF3094
:100AC00070474FF0000070474FEA4102B2F1E04337
:100AD00024BFB3F5001CDCF1FE5C0DD901F0004C25
:100AE0004FEAC0024CEA5070B2F1004F40EB830075
:100AF00008BF20F00100704711F0804F21D113F1A1
:100B00003872BCBF01F00040704741F480114FEAD9
:100B10005252C2F11802C2F1200C10FA0CF320FA62
:100B200002F018BF40F001004FEAC1234FEAD3237F
:100B300003FA0CFC40EA0C0023FA02F34FEA4303E9
:100B4000CCE77FEA625307D150EA01331EBF4FF072
:100B5000FE4040F44000704701F0004040F0FE408D
:100B600040F40000704700BF80F0004002E000BF8A
:100B700081F0004142001FBF5FEA410392EA030F88
:100B80007FEA226C7FEA236C6AD04FEA1262D2EBD2
:100B90001363C1BFD218414048404140B8BF5B42D7
:100BA000192B88BF704710F0004F40F4000020F070
:100BB0007F4018BF404211F0004F41F4000121F086
:100BC0007F4118BF494292EA030F3FD0A2F10102D0
:100BD00041FA03FC10EB0C00C3F1200301FA03F10E
:100BE00000F0004302D5494260EB4000B0F5000F31
:100BF00013D3B0F1807F06D340084FEA310102F1F0
:100C00000102FE2A51D2B1F1004F40EBC25008BFA1
:100C100020F0010040EA03007047490040EB00006B
:100C2000013A28BFB0F5000FEDD2B0FA80FCACF16C
:100C3000080CB2EB0C0200FA0CF0AABF00EBC25099
:100C400052421843BCBFD0401843704792F0000F87
:100C500081F4000106BF80F400000132013BB5E7DA
:100C60004FEA41037FEA226C18BF7FEA236C21D050
:100C700092EA030F04D092F0000F08BF08467047B5
:100C800090EA010F1CBF0020704712F07F4F04D183
:100C9000400028BF40F00040704712F100723CBF96
:100CA00000F50000704700F0004343F0FE4040F4C0
:100CB000000070477FEA226216BF08467FEA23637E
:100CC0000146420206BF5FEA412390EA010F40F469
:100CD000800070474FF0000304E000BF10F00043B5
:100CE00048BF40425FEA000C08BF704743F096439C
:100CF00001464FF000001CE050EA010208BF7047B7
:100D00004FF000030AE000BF50EA010208BF70473D
:100D100011F0004302D5404261EB41015FEA010C52
:100D200002BF84460146002043F0B64308BFA3F14A
:100D30008053A3F50003BCFA8CF2083AA3EBC2532C
:100D400010DB01FA02FC634400FA02FCC2F120024B
:100D5000BCF1004F20FA02F243EB020008BF20F082
:100D60000100704702F1200201FA02FCC2F12002E8
:100D700050EA4C0021FA02F243EB020008BF20EADD
:100D8000DC70704738B50022002304460D46FFF79B
:100D900015FE28B920462946BDE8384000F00AB8BB
:100DA000204605F1004100F005F8404261EB4101A9
:100DB00038BD00BFD0B500220B4B06460F46FFF7EB
:100DC0008BFBFFF761FE0446FFF70CFB0022074B8D
:100DD000FFF782FB02460B4630463946FFF7C4F95F
:100DE000FFF752FE2146D0BD0000F03D0000F0416B
:100DF00080B58CB004AF4FF0FF33029319230193F9
:100E00003B46009301238822EC21574802F014FE50
:100E10003B4619334FF0FF320292072201920093B2
:100E20000123E122EC21504802F006FE7B781B02F0
:100E30001AB23B781BB213431BB29AB24B4B1A80C7
:100E4000FB781B021AB2BB781BB213431AB2484B91
:100E50001A807B791B021AB23B791BB213431AB278
:100E6000444B1A80FB791B021AB27B791BB21343E5
:100E70001BB29AB2404B1A807B7A1B021AB2BB7922
:100E80001BB213431AB23D4B1A80FB7A1B021AB2F3
:100E9000BB7A1BB213431AB2394B1A807B7B1B02FD
:100EA0001AB23B7B1BB213431AB2364B1A80FB7B40
:100EB0001B021AB2BB7B1BB213431AB2324B1A800D
:100EC0007B7C1B021AB23B7C1BB213431AB22F4B22
:100ED0001A80FB7C1B021AB2BB7C1BB213431AB2F2
:100EE0002B4B1A807B7D1B021AB23B7D1BB2134336
:100EF0001AB2284B1A80FB7D1B021AB2BB7D1BB2B3
:100F000013431AB2244B1A803B7E1A46234B1A8095
:100F1000BB7E1B021AB27B7E1BB213431AB2204B5C
:100F20001A80FB7E1A461F4B1A803B7F1B011AB2A8
:100F30007B7F1BB203F00F031BB213431AB21A4B91
:100F40001A80BB7F1B011AB27B7F1B09DBB21BB26D
:100F500013431AB2154B1A80FB7F1AB2144B1A8036
:100F600000BF2037BD4680BD84020020080200205B
:100F700010020020120200200A02002014020020A9
:100F800016020020180200201A0200201C02002075
:100F90001E02002020020020220200200C0200205D
:100FA000240200200E020020260200202802002039
:100FB0002A02002090B589B004AF044608461146C5
:100FC0001A462346FB710346BB710B467B711346E1
:100FD0003B71FFF70DFF0023FB730023BB73B623A8
:100FE000FB734FF47A7302930123019307F10F030C
:100FF00000930123E022EC21584802F023FC034631
:10100000002B02D04FF0FF33A3E0642001F0D6FFA5
:101010007B79FB734FF47A7302930123019307F1F9
:101020000F0300930123F222EC214C4802F00AFC4A
:101030000346002B02D04FF0FF338AE0642001F01A
:10104000BDFF4FF47A7302930123019307F10E035E
:1010500000930123F222EC21404802F0EDFCBA7B20
:10106000FB7B9A4202D04FF0FF3372E097F82030BA
:101070005B015AB297F824309B005BB213435BB21A
:10108000DBB2FB734FF47A7302930123019307F1F0
:101090000F0300930123F522EC21304802F0D2FB2C
:1010A0000346002B02D04FF0FF3352E0642001F0E2
:1010B00085FF4FF47A7302930123019307F10E0326
:1010C00000930123F522EC21244802F0B5FCBA7B01
:1010D000FB7B9A4202D04FF0FF333AE0FB795B0191
:1010E0005AB2BB799B005BB213435AB297F90430F2
:1010F00013435BB2DBB2FB734FF47A7302930123A9
:10110000019307F10F0300930123F422EC2113480C
:1011100002F098FB0346002B02D04FF0FF3318E09B
:10112000642001F04BFF4FF47A7302930123019383
:1011300007F10E0300930123F422EC21074802F08B
:101140007BFCBA7BFB7B9A4202D04FF0FF3300E07E
:10115000002318461437BD4690BD00BF840200200E
:1011600080B586B004AF4FF47A73029301230193E4
:101170001E4B00930123D022EC211D4802F05CFCA1
:101180001A4B1B78602B2AD14FF0FF3302930823B0
:1011900001933B4600930123F722EC21144802F00F
:1011A0004BFC3B781A037B781B011343BA78120976
:1011B000D2B213430F4A1360FB781A033B791B0129
:1011C00013437A791209D2B213430B4A1360BB79E5
:1011D0001B02FA791343094A1360002301E04FF020
:1011E000FF3318460837BD4680BD00BFF801002018
:1011F0008402002000020020FC01002004020020E4
:1012000080B487B000AF78607B68DA10184B1B8819
:101210005B00D31A174AB2F9002002FB03F3DB127A
:101220007B617B681B11124A12889B1A7A68121123
:101230000F490988521A02FB03F31B130E4AB2F935
:10124000002002FB03F39B133B617A693B69134463
:101250000A4A1360094B1A6813469B0013448033F3
:101260001B12FB60FB6818461C37BD4680BC7047EC
:101270000802002010020020120200202C02002090
:1012800080B487B000AF7860494B1B685B10A3F552
:101290007A433B613B699B103A69921002FB03F36E
:1012A000DB12444AB2F9002002FB03F3FB60424B1D
:1012B000B3F900301A463B6902FB03F35B00FA689E
:1012C0001344FB60FB689A103C4BB3F900301B04DD
:1012D0001344FB603A4BB3F9003019463B699B104D
:1012E0003A69921002FB03F35B1301FB03F3DA107C
:1012F000344BB3F9003019463B6901FB03F35B1033
:1013000013449B143B613B6903F500432E4A12884A
:1013100002FB03F3DB133B613B69002B01D100238C
:1013200041E0FB681B131A467B681344274A02FB03
:1013300003F303F1434303F5A0037B617B69002BB7
:1013400006DB7B695A003B69B2FBF3F37B6105E086
:101350003B697A69B2FBF3F35B007B611C4BB3F929
:10136000003019467B69DB087A69D20802FB03F377
:101370005B0B01FB03F31B133B617B699B081A4664
:10138000144BB3F9003002FB03F35B13FB603A69C3
:10139000FB681344104AB2F9002013441A117B6908
:1013A00013447B617B6918461C37BD4680BC70477F
:1013B0002C0200201C0200201A020020180200202B
:1013C00016020020140200200A020020CBF3FFFFC7
:1013D00022020020200200201E02002080B485B0DE
:1013E00000AF78602C4B1B68A3F59633FB607B68DD
:1013F0009A032A4BB3F900301B05D21A284BB3F9D4
:1014000000301946FB6801FB03F3D31A03F5804350
:10141000DB13244AB2F900201146FA6801FB02F2FC
:101420009212214909880846F96800FB01F1C912A6
:1014300001F5004101FB02F2921202F500121B4974
:10144000B1F9001001FB02F202F50052921302FB07
:1014500003F3FB60FB68DB13FA68D21302FB03F3B0
:10146000DB11134A128802FB03F31B11FA68D31A2B
:10147000FB60FB6823EAE373FB60FB68B3F1C85FC2
:10148000A8BF4FF0C853FB60FB681B131846143706
:10149000BD4680BC704700BF2C0200202602002001
:1014A000280200202A0200200E0200202402002030
:1014B0000C02002080B500AFFFF752FE0346002B60
:1014C00058D1334B1B68B3F5000F04D1314B4FF0AB
:1014D00000021A6016E02E4B1B681846FFF790FEBC
:1014E00003461846FEF78EFF4FF000022A4BFFF727
:1014F0001DF902460B4610461946FFF7E5FA03466A
:10150000244A1360254B1B68B3F5000F04D1244B0C
:101510004FF000021A600BE0204B1B681846FFF7E3
:10152000AFFE03461846FFF7D5FB03461C4A13607F
:101530001C4B1B68B3F5004F04D11B4B4FF000024E
:101540001A6023E0174B1B681846FFF747FF034656
:101550001846FEF747FF4FF00002144BFFF7E6F87E
:1015600002460B4610461946FFF7AEFA03460E4AEE
:1015700013600BE00C4B4FF000021A600A4B1B6823
:10158000074A1360064B1B68024A136000BF80BD08
:10159000FC0100203403002000005940000200201C
:1015A00038030020040200203C030020000090408B
:1015B00080B483B000AF0346FB71FB790D4AA2FBF8
:1015C0000323DB08DBB21B0158B2FA79094BA3FBFA
:1015D0000213D9080B469B000B445B00D31ADBB205
:1015E0005BB203435BB2DBB218460C37BD4680BC2E
:1015F000704700BFCDCCCCCC80B483B000AF0346E5
:10160000FB71FB791B09DBB21A46920013445B00A5
:10161000DAB2FB7903F00F03DBB21344DBB21846F6
:101620000C37BD4680BC704780B485B000AFC7F8AA
:1016300004C00A4B1B685B6AFB73094B1B78FA7B7F
:101640009A4206D0074B1A78074B1A70044AFB7B64
:10165000137000BF1437BD4680BC7047EC020020F9
:101660004D030020010000204303002080B584B01A
:1016700002AF07F110037B6001F03EFC00F08EFB2F
:1016800000F0F8FC00F0E8FB00F042FC00F0A0FCE9
:1016900000F010FC04230193002300930323012294
:1016A00005210220FFF786FC00F074FF3C21214851
:1016B00004F092FC002000F0D7FF1F4B1A781F4B5C
:1016C0001B789A4204D13B1D9C4600F041F82AE069
:1016D000194B1A781A4B1B789A4204D13B1D9C4631
:1016E00000F0B6F81FE0144B1A78164B1B789A429C
:1016F00004D13B1D9C4600F021F914E00E4B1A78F2
:10170000114B1B789A4204D13B1D9C4600F014FA01
:1017100009E0094B1A780D4B1B789A4203D13B1D07
:101720009C4600F085FA00F0B7FF3B1D9C4600F098
:101730000BFBBFE7EC020020430300204403002022
:101740000000002001000020020000200300002013
:1017500080B588B002AF6346C7F804C09C46FFF767
:1017600063FF01223249334803F02EFE0122324941
:10177000304803F0B7FF2E4B1B781846FFF73CFFAD
:101780000346FB752A4B5B781846FFF735FF034687
:10179000BB75274B9B781846FFF72EFF03467B75DA
:1017A000FA7D07F110032549184605F0E9FCBA7DDA
:1017B00007F10C032149184605F0E2FC7A7D07F198
:1017C00008031E49184605F0DBFC0021002001F04B
:1017D00093F81B4B07F11000012200920ECB01F091
:1017E00065F80021232001F087F8154B01220092B3
:1017F0000ECB144801F05AF80021372001F07CF894
:101800000F4B07F10C00012200920ECB01F04EF8B5
:1018100000215F2001F070F80B4B07F10800012256
:1018200000920ECB01F042F800BF1837BD4680BDD4
:1018300050030020D802002054030020F8A900081B
:1018400074D2000800AA00085CD200080000000062
:1018500080B58EB002AFC7F804C0FFF72BFE64203E
:1018600001F0ACFB2E4B1B681846FEF7DDFD02466F
:101870000B4607F12400CDE900232A4A0A2105F08E
:101880004BFC294B1B681846FEF7CEFD22A3D3E97B
:101890000023FEF74BFF02460B4607F11400CDE98B
:1018A0000023224A0F2105F037FC214B1B68184604
:1018B000FEF7BAFD02460B4607F10800CDE900230A
:1018C0001C4A0A2105F028FC0021002001F014F830
:1018D000194B07F12400012200920ECB00F0E6FF25
:1018E0001421002001F008F8134B07F10800012231
:1018F00000920ECB00F0DAFF2821002000F0FCFF60
:101900000D4B07F11400012200920ECB00F0CEFF28
:1019100000BF3037BD4680BDFCA9F1D24DAA604062
:101920003403002004AA00083803002010AA00088D
:101930003C03002020AA000868D2000880B58EB0C1
:1019400002AFC7F804C001226F49704803F03CFDA4
:1019500001226F496D4803F0C5FE6E4B1B685B6A40
:10196000FB626D4B1B78002B04D1FB6ADAB26B4B28
:101970001A701FE0FB6A0D2B07D1664B1B68012212
:101980005A62664B00221A7014E0FB6A002B07D1E2
:10199000604B1B680C225A62604B37221A7009E0B8
:1019A000FB6ADBB21A4692001344DBB2053BDAB2A3
:1019B0005A4B1A705A4B9B781846FFF71DFE034688
:1019C00087F82B30504B9B781846FFF715FE0346DF
:1019D00087F82A30524B5B781846FFF70DFE034616
:1019E00087F82930484B5B781846FFF705FE034619
:1019F00087F828304A4B1B781846FFF7FDFD034651
:101A000087F82730404B1B781846FFF7F5FD034653
:101A100087F8263097F827304FF4616202FB03F114
:101A200097F8292013461B019B1A9B00CA1897F8A8
:101A30002B3013443B6297F826304FF4616202FB6F
:101A400003F197F8282013461B019B1A9B00CA1824
:101A500097F82A301344FB613A6AFB69D31ABB61D9
:101A6000BB69304AA2FB032359092E4BA3FB012378
:101A70005A0913461B019B1A9B00CA1A1346FB7591
:101A8000B969284BA3FB01235A0913461B019B1A72
:101A90009B00CA1A1346BB75234B1B78002B01D041
:101AA000FB7D01E01D4B1B7807F10C001A461F4916
:101AB00005F066FB0021142000F01EFF1C4B07F10F
:101AC0000C00012200920ECB00F0F0FEBA7D07F16F
:101AD00008031649184605F053FB00213C2000F08E
:101AE0000BFF114B1B78002B02D007F1080000E020
:101AF00010480F4B012200920ECB00F0D7FE00BF22
:101B00003037BD4680BD00BF50030020D802002002
:101B100054030020EC020020400300204C0300206E
:101B2000580300208988888842030020F8A900080B
:101B300074D200082CAA000880B586B002AFC7F89E
:101B400004C0334B1B685B6AFB73324B1B78FA7B18
:101B50009A4211D0304B1A78304B1B789A4204D1FC
:101B60002F4B1A782C4B1A7003E02C4B1A782A4B07
:101B70001A70284AFB7B13700021002000F0BCFE85
:101B8000254B1A78254B1B789A420CBF0123002362
:101B9000DBB20093142380220021002000F0C4FE59
:101BA0001D4B1A781D4B1B789A4214BF012300234A
:101BB000DBB21A461B4B00920ECB1B4800F076FEA0
:101BC0001921002000F098FE134B1A78144B1B7853
:101BD0009A420CBF01230023DBB20093142380221E
:101BE0001921002000F0A0FE0B4B1A780C4B1B783B
:101BF0009A4214BF01230023DBB21A46094B00921C
:101C00000ECB0A4800F052FE00BF1037BD4680BD23
:101C1000EC0200204D030020450300204603002075
:101C20000400002068D2000830AA00083CAA00087E
:101C300080B588B002AFC7F804C0374B1B685B6A39
:101C4000FB75364B1A78364B1B789A4203D1354ACE
:101C5000FB7D137012E0314B1A78334B1B789A429C
:101C600003D1324AFB7D137008E02C4B1A78304BBD
:101C70001B789A4202D12F4AFB7D13702D4B1B78A3
:101C80001A4607F110032C49184605F079FA274B3C
:101C90001B781A4607F10C032749184605F070FA1D
:101CA000204B1B781A4607F108032349184605F014
:101CB00067FA0021002000F01FFE204B07F1100002
:101CC000012200920ECB00F0F1FD0021232000F054
:101CD00013FE1A4B012200920ECB194800F0E6FDCC
:101CE0000021372000F008FE144B07F10C00012200
:101CF00000920ECB00F0DAFD00215F2000F0FCFD29
:101D0000104B07F10800012200920ECB00F0CEFD2F
:101D100000BF1837BD4680BDEC02002047030020FD
:101D2000480300204B030020050000204A03002048
:101D30000600002049030020F8A9000874D200081A
:101D400000AA00085CD2000880B582B000AFC7F8D6
:101D500004C00F4B1B78012B11D10E4B1B780133A4
:101D6000DAB20C4B1A700B4B1B7803F00103DBB299
:101D7000002B09D10221084801F0EEFB04E000220B
:101D80000221054801F0D0FB00BF0837BD4680BDE9
:101D9000410300204E0300200008014080B594B0AC
:101DA00000AF07F1280328220021184605F065FA44
:101DB00007F1140300221A605A609A60DA601A610F
:101DC0003B1D00221A605A609A60DA600523BB62EC
:101DD0004FF48033FB6200233B6301237B630123C9
:101DE000BB6302237B644FF48033BB644FF4E01386
:101DF000FB6407F12803184602F046FC0346002B5B
:101E000001D000F089FB0F237B610223BB6100231B
:101E1000FB614FF480633B6200237B6207F1140394
:101E20000221184602F0B2FE0346002B01D000F05A
:101E300073FB01237B604FF48073BB603B1D18462E
:101E400003F032F80346002B01D000F065FB00BF21
:101E50005037BD4680BD000080B500AF124B134A1D
:101E60001A60114B124A5A600F4B00229A600E4BB7
:101E70000022DA600C4B4FF480421A610A4B0022B8
:101E80005A61094B00229A61074B0022DA61064B26
:101E900000221A62044801F091FB0346002B01D096
:101EA00000F03AFB00BF80BD30020020005400402B
:101EB000801A060080B500AF124B134A1A60114B0E
:101EC000124A5A600F4B00229A600E4B0022DA60D1
:101ED0000C4B4FF480421A610A4B00225A61094BA5
:101EE00000229A61074B0022DA61064B00221A6237
:101EF000044801F063FB0346002B01D000F00CFB0B
:101F000000BF80BD8402002000580040801A0600F7
:101F100080B500AF294B2A4A1A60284B4FF0FF3298
:101F20005A60264B4FF480729A60244803F028F9D7
:101F30000346002B01D000F0EFFA224B00221A706A
:101F4000204B00225A701F4B00229A7001221D491B
:101F50001A4803F0A1F90346002B01D000F0DCFA87
:101F6000194B01221A70184B01225A70164B01228C
:101F70009A70154B0022DA70012213490F4803F0C2
:101F8000FBFA0346002B01D000F0C6FA0F4B0022EB
:101F90001A700E4B00225A700C4B00229A700B4B99
:101FA00000225A6001220949044803F0EFFB03466E
:101FB000002B01D000F0B0FA00BF80BDD802002095
:101FC0000028004050030020540300205803002044
:101FD00080B58CB000AF07F10C0324220021184615
:101FE00005F04BF93B1D00221A605A60204B4FF060
:101FF00080421A601E4B00225A601D4B00229A60DC
:102000001B4B3B22DA601A4B00221A61184B00224C
:102010009A610123FB6000233B6101237B61002364
:10202000BB610023FB6100233B6201237B62002331
:10203000BB620023FB6207F10C0319460C4803F056
:1020400029FF0346002B01D000F066FA00237B60D5
:102050000023BB603B1D1946054804F0D1F8034638
:10206000002B01D000F058FA00BF3037BD4680BDCC
:10207000EC02002080B588B000AF07F11003002209
:102080001A605A609A60DA60374B9B69364A43F0AF
:1020900010039361344B9B6903F01003FB60FB68F2
:1020A000314B9B69304A43F0200393612E4B9B696F
:1020B00003F02003BB60BB682B4B9B692A4A43F0AB
:1020C00004039361284B9B6903F004037B607B68E6
:1020D000254B9B69244A43F008039361224B9B697B
:1020E00003F008033B603B68002202211F4801F017
:1020F0001BFA02233B6101237B610023BB610223A6
:10210000FB6107F110031946184801F089F808230C
:102110003B61174B7B610023BB6107F1100319463C
:10212000124801F07DF802233B61114B7B610023D3
:10213000BB6107F1100319460E4801F071F8002247
:102140000021072001F035F8072001F04EF80022A9
:102150000021092001F02DF8092001F046F800BF08
:102160002037BD4680BD00BF00100240000801407E
:1021700000001110000C014080B586B000AF7860FF
:1021800001222E492E4803F01FF901222D492C4827
:1021900003F0A8FA294B5B781846FFF72DFA03469F
:1021A0001A467B6813447B617A69274BA3FB0213B1
:1021B00059090B461B015B1A9B00D31A3B611F4B4D
:1021C0001B781846FFF718FA034619467B691E4A22
:1021D000A2FB03235B09CA181C4BA3FB02131909BA
:1021E0000B465B000B44DB00D31AFB60FB68DBB2E1
:1021F0001846FFF7DDF903461A46154B1A703B697E
:10220000DBB21846FFF7D4F903461A46104B5A7052
:102210000A4B9A780E4B9A7001220D49084803F038
:10222000B5FA0346002B01D000F076F9094B1B6884
:1022300000225A6200BF1837BD4680BD50030020FF
:10224000D80200206003002089888888ABAAAAAA47
:1022500058030020EC02002080B500AF01220C4999
:102260000C4803F0B1F80A4B1A780B4B1A70084B64
:102270005A78094B5A70064B9A78074B9A70074B5D
:1022800000221A70064B00221A7000BF80BD00BFEA
:1022900050030020D80200205803002041030020F2
:1022A0004203002080B584B000AF0346FB80784B2A
:1022B0001B78012B02D1FFF7CFFFE5E000F074FEA1
:1022C000F860FB88082B48D1724B1B68FA68D31A58
:1022D000B3F5967F41D9704B1A78704B1B789A42B0
:1022E00018D16F4B1B685B6AFB72FB7A002B0ED018
:1022F0006C4B1B78012B02D1FFF7AEFF2AE0FB7A73
:102300001846FFF739FF674B01221A7022E0FFF7EA
:10231000A3FF1FE0604B1A78634B1B789A4204D1ED
:10232000624B1A785C4B1A7014E05B4B1A785F4B67
:102330001B789A4204D15E4B1A78574B1A7009E009
:10234000554B1A785A4B1B789A4203D1574B1A783F
:10235000514B1A704F4AFB681360FB88022B40F008
:102360009380544B1B68FA68D31AB3F5967F40F2FA
:102370008B80494B1A78494B1B789A4204D14C4BBD
:102380001A78454B1A707CE0434B1A784A4B1B78FD
:102390009A4204D1414B1A783F4B1A7071E03E4B80
:1023A0001A78434B1B789A4204D1434B1A783A4B24
:1023B0001A7066E0384B1A783C4B1B789A420AD167
:1023C0003E4B1A783E4B1B789A425AD1364B1A78BC
:1023D000314B1A7055E0304B1A78334B1B789A42C8
:1023E0004FD1384B1A78384B1B789A4211D1374B62
:1023F0001B781846FFF7DCF803461A46344B9A70F0
:10240000274B1B6800225A62324B1A782D4B1A70E8
:1024100037E02C4B1A782F4B1B789A4211D12E4B58
:102420001B781846FFF7C4F803461A46284B5A7023
:102430001B4B1B6800225A62284B1A78214B1A70DA
:102440001FE0204B1A78254B1B789A4219D1244B58
:102450001B781846FFF7ACF803461A461C4B1A7057
:102460000F4B1B6800225A62012219491D4802F0D5
:1024700013FF154B1A78134B1A700C4B1A78064B36
:102480001A700C4AFB68136000BF1037BD4680BD50
:1024900041030020680300204303002001000020C6
:1024A000EC02002042030020030000200200002074
:1024B00044030020640300200000002045030020A6
:1024C0004603002047030020480300204B03002060
:1024D00050030020050000204A03002006000020D1
:1024E00049030020D802002080B483B000AF786098
:1024F000074B1B78012B05D1064B01221A70044BA8
:1025000000221A7000BF0C37BD4680BC704700BF68
:10251000420300204103002080B400AF72B600BF28
:1025200000BFFDE780B400AF00BFBD4680BC704770
:1025300080B586B004AF0346FB714FF0FF330293C2
:1025400001230193FB1D00930123002278210348FE
:1025500001F078F900BF0837BD4680BD3002002089
:1025600080B586B004AF786039603B689BB24FF0AD
:10257000FF32029201937B6800930123402278216D
:10258000034801F05FF900BF0837BD4680BD00BFBA
:102590003002002080B500AFFFF7C4FF642000F0D8
:1025A0000DFD002000F022FA2020FFF7C1FF0020DF
:1025B000FFF7BEFFB020FFF7BBFFC820FFF7B8FF53
:1025C0000020FFF7B5FF1020FFF7B2FF4020FFF714
:1025D000AFFFFF2000F0F6F9A120FFF7A9FFA6202A
:1025E000FFF7A6FFA820FFF7A3FF3F20FFF7A0FFFC
:1025F000A420FFF79DFFD320FFF79AFF0020FFF7ED
:1026000097FFD520FFF794FFF020FFF791FFD92027
:10261000FFF78EFF2220FFF78BFFDA20FFF788FFFE
:102620001220FFF785FFDB20FFF782FF2020FFF756
:102630007FFF8D20FFF77CFF1420FFF779FF01203B
:1026400000F0D4F9002000F00FF800F025F8054B59
:1026500000221A80034B00225A80024B01221A7179
:1026600000BF80BD6C07002080B582B000AF03467C
:10267000FB71FB79002B01D1002300E0FF234FF415
:1026800080621946034804F0F8FD00BF0837BD46D4
:1026900080BD00BF6C03002080B582B000AF002376
:1026A000FB7116E0FB79503BDBB21846FFF740FFA9
:1026B0000020FFF73DFF1020FFF73AFFFB79DB0119
:1026C000084A134480211846FFF74AFFFB7901337B
:1026D000FB71FB79072BE5D900BF00BF0837BD466A
:1026E00080BD00BF6C03002080B483B000AF034600
:1026F000FB710B46BB7113467B7197F90730002BBA
:102700003DDBBB793F2B3AD87B79012B1AD1FA7983
:10271000BB79DB08D8B20346DB0113441A4AD35C09
:102720005AB2BB7903F00703012101FA03F35BB24C
:10273000134359B2FA790346DB011344C9B2124A72
:10274000D1541DE0FA79BB79DB08D8B20346DB012E
:1027500013440D4AD35C5AB2BB7903F0070301213D
:1027600001FA03F35BB2DB435BB2134059B2FA796F
:102770000346DB011344C9B2034AD15400E000BF51
:102780000C37BD4680BC70476C03002090B589B003
:1027900000AF0446384680E80E002346FB73FB7BFF
:1027A0001F2B02D9FB7B7E2B01D9002377E03E4B08
:1027B0001B881A463B781344802B06DC3A4B5B8817
:1027C0001A467B781344402B01DD002367E0002389
:1027D000FB614EE07A68FB7B203B797801FB03F3D9
:1027E0001946FB690B445B0013441B887B61002383
:1027F000BB6136E07A69BB6902FA03F303F4004374
:10280000002B13D0284B1B88DAB2BB69DBB2134410
:10281000D8B2254B5B88DAB2FB69DBB21344DBB27A
:1028200097F830201946FFF75FFF17E01E4B1B8813
:10283000DAB2BB69DBB21344D8B21B4B5B88DAB2A5
:10284000FB69DBB21344D9B297F83030002B0CBFD0
:1028500001230023DBB21A46FFF746FFBB690133B1
:10286000BB613B781A46BB699342C3D3FB69013312
:10287000FB617B781A46FB699342ABD30A4B1B88FA
:10288000BA68002A05D0B968FA7B203A0A4412785F
:1028900000E03A7813449AB2034B1A80FB7B184647
:1028A0002437BD4690BD00BF6C07002080B586B0C0
:1028B00002AFF860384680E80E0013E0FB68187835
:1028C0003B7E00933B460ECBFFF760FF03461A4664
:1028D000FB681B789A4202D0FB681B7808E0FB6813
:1028E0000133FB60FB681B78002BE7D1FB681B788A
:1028F00018461037BD4680BD80B483B000AF034694
:102900000A46FB711346BB71FB799AB2054B1A80DC
:10291000BB799AB2034B5A8000BF0C37BD4680BCCE
:10292000704700BF6C07002090B585B000AF04462B
:10293000084611461A462346FB710346BB710B46F7
:102940007B7113463B71FA797B79934228BF13461A
:102950007B737A79FB79934238BF13463B73BA791C
:102960003B79934228BF1346FB723A79BB79934275
:1029700038BF1346BB72FB7AFB7317E07B7BBB73DC
:1029800009E097F82020F97BBB7B1846FFF7ACFEE7
:10299000BB7B0133BB73BA7B3B7B9A4203D897F96D
:1029A0000E30002BEDDAFB7B0133FB73FA7BBB7A35
:1029B0009A4203D8FB7B3F2BE0D900BF00BF1437FE
:1029C000BD4690BD80B584B000AF0346FB71812346
:1029D000FB73FB7B1846FFF7ABFDFB791846FFF74F
:1029E000A7FD00BF1037BD4680BD000080B584B094
:1029F00000AF0346FB71FB79002B05D0AF23FB73BF
:102A0000084B01225A7104E0AE23FB73054B0022F0
:102A10005A71FB7B1846FFF78BFD00BF1037BD4690
:102A200080BD00BF6C07002080B485B000AF154B9F
:102A30009B69144A43F001039361124B9B6903F0B5
:102A40000103BB60BB680F4BDB690E4A43F0805348
:102A5000D3610C4BDB6903F080537B607B680A4BCE
:102A60005B68FB60FB6823F0E063FB60FB6843F09E
:102A70000073FB60044AFB68536000BF1437BD4617
:102A800080BC7047001002400000014080B58AB051
:102A900000AF786007F1180300221A605A609A604C
:102AA000DA607B681B682B4A934224D12A4B9B69CE
:102AB000294A43F008039361274B9B6903F00803FD
:102AC0007B617B69C023BB611223FB6103237B62B3
:102AD00007F118031946214800F0A2FB1E4BDB69E1
:102AE0001D4A43F40013D3611B4BDB6903F400134D
:102AF0003B613B6929E07B681B68194A934224D1FA
:102B0000154B9B69144A43F008039361124B9B6970
:102B100003F00803FB60FB684FF44063BB611223C2
:102B2000FB6103237B6207F1180319460B4800F091
:102B300077FB094BDB69084A43F48003D361064BFA
:102B4000DB6903F48003BB60BB6800BF2837BD4668
:102B500080BD00BF0054004000100240000C014046
:102B60000058004080B584B000AF78607B681B6877
:102B70000F4A934218D101F07BFD0E4BDB690D4AE1
:102B800043F00063D3610B4BDB6903F00063FB6030
:102B9000FB68094B01221A6000220021292000F065
:102BA00008FB292000F021FB00BF1037BD4680BD87
:102BB00000280040001002403C04424280B58AB028
:102BC00000AF786007F1140300221A605A609A601F
:102BD000DA607B681B68B3F1804F4ED1294BDB690B
:102BE000284A43F00103D361264BDB6903F001035C
:102BF0003B613B69234B9B69224A43F00403936189
:102C0000204B9B6903F00403FB60FB681D4B9B6931
:102C10001C4A43F0080393611A4B9B6903F00803B5
:102C2000BB60BB684FF400437B610023BB610023A2
:102C3000FB6107F114031946134800F0F1FA082369
:102C40007B610023BB610023FB6107F1140319467C
:102C50000E4800F0E5FA0E4B5B687B627B6A23F45A
:102C600040737B627B6A43F0E0637B627B6A43F480
:102C700080737B62064A7B6A536000BF2837BD467B
:102C800080BD00BF0010024000080140000C014060
:102C90000000014080B400AF00BFFDE780B400AF8A
:102CA00000BFFDE780B400AF00BFFDE780B400AF18
:102CB00000BFFDE780B400AF00BFFDE780B400AF08
:102CC00000BFBD4680BC704780B400AF00BFBD46AA
:102CD00080BC704780B400AF00BFBD4680BC704769
:102CE00080B500AF00F04EF900BF80BD80B500AFE9
:102CF000022000F04BFC00BF80BD80B500AF082073
:102D000000F044FC00BF80BD80B500AF024802F077
:102D1000F5FD00BF80BD00BFD802002080B400AF29
:102D200001231846BD4680BC704780B582B000AF15
:102D30007860396004F0F4FA034616221A604FF006
:102D4000FF3318460837BD4680BD80B582B000AF5E
:102D500078604FF0FF317868FFF7E7FF00BFFDE7CD
:102D600080B586B000AFF860B9607A6000237B61FF
:102D70000AE0AFF300800146BB685A1CBA60CAB2D1
:102D80001A707B6901337B617A697B689A42F0DB58
:102D90007B6818461837BD4680BD80B586B000AF49
:102DA000F860B9607A6000237B6109E0BB685A1C57
:102DB000BA601B781846AFF300807B6901337B61F2
:102DC0007A697B689A42F1DB7B6818461837BD4602
:102DD00080BD80B483B000AF78604FF0FF331846F9
:102DE0000C37BD4680BC704780B483B000AF7860BC
:102DF00039603B684FF400525A60002318460C3784
:102E0000BD4680BC704780B483B000AF78600123BA
:102E100018460C37BD4680BC704780B485B000AF03
:102E2000F860B9607A60002318461437BD4680BC4C
:102E30007047000080B586B000AF7860144A154B2B
:102E4000D31A7B617B693B61134B1B68002B02D15A
:102E5000114B124A1A60104B1A687B6813443A6986
:102E60009A4207D204F05CFA03460C221A604FF033
:102E7000FF3309E0084B1B68FB60074B1A687B684F
:102E80001344054A1360FB6818461837BD4680BDD9
:102E9000005000200004000074070020C808002033
:102EA00080B400AF00BFBD4680BC7047FFF7F8FF9D
:102EB0000B480C490C4A002302E0D458C450043398
:102EC000C4188C42F9D3094A094C002301E013606D
:102ED0000432A242FBD304F029FAFEF7C7FB704785
:102EE00000000020DC01002000D70008DC010020E9
:102EF000C8080020FEE7000080B500AF084B1B6843
:102F0000074A43F010031360032000F047F90F2035
:102F100000F008F8FFF788FD0023184680BD00BFC9
:102F20000020024080B582B000AF7860124B1A6872
:102F3000124B1B7819464FF47A73B3FBF1F3B2FBD3
:102F4000F3F3184600F05FF90346002B01D001238C
:102F50000EE07B680F2B0AD8002279684FF0FF3013
:102F600000F027F9064A7B681360002300E0012384
:102F700018460837BD4680BD08000020100000201C
:102F80000C00002080B400AF054B1B781A46054B9F
:102F90001B681344034A136000BFBD4680BC7047E2
:102FA000100000207807002080B400AF024B1B689F
:102FB0001846BD4680BC70477807002080B584B0B5
:102FC00000AF7860FFF7F0FFB8607B68FB60FB68DC
:102FD000B3F1FF3F05D00A4B1B781A46FB68134438
:102FE000FB6000BFFFF7E0FF0246BB68D31AFA6838
:102FF0009A42F7D800BF00BF1037BD4680BD00BF62
:103000001000002080B485B000AF78607B6803F0CA
:103010000703FB600C4BDB68BB60BA684FF6FF032D
:103020001340BB60FB681A02BB68134343F0BF63E5
:1030300043F40033BB60044ABB68D36000BF14375D
:10304000BD4680BC704700BF00ED00E080B400AF1B
:10305000044BDB681B0A03F007031846BD4680BC1F
:10306000704700BF00ED00E080B483B000AF0346BE
:10307000FB7197F90730002B0BDBFB7903F01F0284
:10308000064997F907305B09012000FA02F241F87E
:10309000232000BF0C37BD4680BC704700E100E034
:1030A00080B483B000AF03463960FB7197F90730F5
:1030B000002B0ADB3B68DAB20C4997F907301201A2
:1030C000D2B20B4483F800230AE03B68DAB2084925
:1030D000FB7903F00F03043B1201D2B20B441A76C2
:1030E00000BF0C37BD4680BC704700BF00E100E068
:1030F00000ED00E080B489B000AFF860B9607A609C
:10310000FB6803F00703FB61FB69C3F10703042BB2
:1031100028BF0423BB61FB690433062B02D9FB697A
:10312000033B00E000237B614FF0FF32BB6902FAF2
:1031300003F3DA43BB681A407B699A404FF0FF31D2
:103140007B6901FA03F3D9437B680B4013431846AC
:103150002437BD4680BC704780B582B000AF786030
:103160007B68013BB3F1807F01D301230FE00A4A62
:103170007B68013B53600F214FF0FF30FFF790FF5A
:10318000054B00229A60044B07221A600023184660
:103190000837BD4680BD00BF10E000E080B582B0BA
:1031A00000AF78607868FFF72DFF00BF0837BD4695
:1031B00080BD80B586B000AF0346B9607A60FB730E
:1031C00000237B61FFF742FF78617A68B96878690C
:1031D000FFF790FF024697F90F3011461846FFF7A8
:1031E0005FFF00BF1837BD4680BD80B582B000AF1D
:1031F0000346FB7197F907301846FFF735FF00BF0C
:103200000837BD4680BD80B582B000AF7860786871
:10321000FFF7A2FF034618460837BD4680BD0000F1
:1032200080B48BB000AF7860396000237B620023EC
:103230003B6269E101227B6A02FA03F3FB613B68AE
:103240001B68FA691340BB61BA69FB699A4240F096
:1032500058813B685B689A4A93425ED0984A934291
:1032600075D8984A934258D0964A93426FD8964A56
:10327000934252D0944A934269D8944A93424CD094
:10328000924A934263D8924A934246D0904A9342DC
:103290005DD8122B2AD8122B59D801A252F823F04C
:1032A0001B330008F53200080733000849330008D3
:1032B0004F3300084F3300084F3300084F330008E6
:1032C0004F3300084F3300084F3300084F330008D6
:1032D0004F3300084F3300084F3300084F330008C6
:1032E0004F330008FD32000811330008794A934239
:1032F00013D02CE03B68DB683B6229E03B68DB686D
:1033000004333B6224E03B68DB6808333B621FE028
:103310003B68DB680C333B621AE03B689B68002B20
:1033200002D104233B6213E03B689B68012B05D16B
:1033300008233B627B68FA691A6109E008233B6253
:103340007B68FA695A6103E000233B6200E000BF3A
:10335000BB69FF2B01D87B6801E07B6804337B618C
:10336000BB69FF2B02D87B6A9B0002E07B6A083BAB
:103370009B003B617B691A680F213B6901FA03F3EB
:10338000DB431A40396A3B6901FA03F31A437B694C
:103390001A603B685B6803F08053002B00F0B1803B
:1033A0004D4B9B694C4A43F0010393614A4B9B6927
:1033B00003F00103BB60BB68484A7B6A9B08023389
:1033C00052F82330FB607B6A03F003039B000F225B
:1033D00002FA03F3DB43FA681340FB607B68404A60
:1033E000934213D07B683F4A93420DD07B683E4A9C
:1033F000934207D07B683D4A934201D1032306E004
:10340000042304E0022302E0012300E000237A6A9F
:1034100002F0030292009340FA681343FB602F49C5
:103420007B6A9B080233FA6841F823203B685B689B
:1034300003F48013002B06D02D4B9A682C49BB69EE
:1034400013438B6006E02A4B9A68BB69DB4328492B
:1034500013408B603B685B6803F40013002B06D0BD
:10346000234BDA682249BB691343CB6006E0204B4B
:10347000DA68BB69DB431E491340CB603B685B687D
:1034800003F40033002B06D0194B5A681849BB6966
:1034900013434B6006E0164B5A68BB69DB43144983
:1034A00013404B603B685B6803F48033002B21D0F2
:1034B0000F4B1A680E49BB6913430B6021E000BF34
:1034C0000000321000003110000022100000211016
:1034D0000000121000001110001002400000014016
:1034E00000080140000C01400010014000140140A0
:1034F000000401400B4B1A68BB69DB4309491340C8
:103500000B607B6A01337B623B681A687B6A22FA34
:1035100003F3002B7FF48EAE00BF00BF2C37BD46F7
:1035200080BC70470004014080B483B000AF786075
:103530000B467B8013467B707B78002B03D07A8808
:103540007B681A6103E07B881A047B681A6100BFFC
:103550000C37BD4680BC704780B485B000AF786042
:103560000B467B807B68DB68FB607A88FB681340D6
:103570001A04FB68D9437B880B401A437B681A61A5
:1035800000BF1437BD4680BC7047000080B582B0D4
:1035900000AF0346FB80084B5A69FB881340002BA1
:1035A00006D0054AFB885361FB881846FEF77AFE71
:1035B00000BF0837BD4680BD0004014080B584B01F
:1035C00000AF78607B68002B01D101232BE17B6881
:1035D00093F83D30DBB2002B06D17B68002283F8E4
:1035E0003C207868FFF752FA7B68242283F83D205C
:1035F0007B681B681A687B681B6822F001021A60EE
:103600007B681B681A687B681B6842F400421A607A
:103610007B681B681A687B681B6822F400421A608A
:1036200001F0FCFBF8607B685B68814A934207D835
:10363000FB68804A934294BF01230023DBB206E07B
:10364000FB687D4A934294BF01230023DBB2002B29
:1036500001D00123E7E0FB68784AA2FB03239B0C1F
:10366000BB607B681B685B6823F03F017B681B685D
:10367000BA680A435A607B681B681B6A23F03F01E3
:103680007B685B686A4A934202D8BB68013309E0F1
:10369000BB684FF4967202FB03F3694AA2FB032353
:1036A0009B0901337A6812680B4313627B681B68BD
:1036B000DB6923F44F4222F0FF027B685B685C49C0
:1036C0008B4219D8FB68591E7B685B685B00B1FBB5
:1036D000F3F3591C40F6FC730B40002B0AD0FB6837
:1036E000591E7B685B685B00B1FBF3F30133C3F3E6
:1036F0000B0351E004234FE07B689B68002B11D142
:10370000FB68581E7B6859680B465B000B44B0FB96
:10371000F3F30133C3F30B03002B0CBF012300238E
:10372000DBB212E0FB68581E7B6859680B469B00B1
:103730000B4499000B44B0FBF3F30133C3F30B03C9
:10374000002B0CBF01230023DBB2002B01D001238F
:1037500022E07B689B68002B0ED1FB68581E7B68BB
:1037600059680B465B000B44B0FBF3F30133C3F322
:103770000B0343F400430FE0FB68581E7B68596855
:103780000B469B000B4499000B44B0FBF3F3013351
:10379000C3F30B0343F44043796809681343CB61D7
:1037A0007B681B681B6823F0C0017B68DA697B6853
:1037B0001B6A1A437B681B680A431A607B681B6894
:1037C0009B6823F4034323F0FF037A6811697A6846
:1037D000D26811437A6812680B4393607B681B6858
:1037E000DB6823F0FF017B685A697B689B691A4399
:1037F0007B681B680A43DA607B681B681A687B6811
:103800001B6842F001021A607B6800221A647B6820
:10381000202283F83D207B6800221A637B68002207
:1038200083F83E20002318461037BD4680BD00BFF8
:10383000A08601007F841E00FF083D0083DE1B433D
:10384000D34D621080B588B002AFF86008461146CB
:103850001A4603467B810B463B811346FB80FFF7EC
:10386000A3FB7861FB6893F83D30DBB2202B40F07E
:10387000D9807B690093192301226D49F86800F013
:10388000C1FC0346002B01D00223CCE0FB6893F877
:103890003C30012B01D10223C5E0FB68012283F8F3
:1038A0003C20FB681B681B6803F00103012B07D059
:1038B000FB681B681A68FB681B6842F001021A600B
:1038C000FB681B681A68FB681B6822F400621A60B8
:1038D000FB68212283F83D20FB68402283F83E20CC
:1038E000FB6800221A64FB683A6A5A62FB68BA8C69
:1038F0005A85FB685B8D9AB2FB681A85FB684D4A56
:10390000DA62F8883A8979897B690193BB6A009306
:103910000346F86800F0F8FA0346002B52D0012362
:1039200081E07A69B96AF86800F086FD0346002BE9
:103930000DD0FB681B6C042B07D1FB681B681A6851
:10394000FB681B6842F400721A6001236BE0FB689D
:103950005B6A1A78FB681B681A61FB685B6A5A1C11
:10396000FB685A62FB681B8D013B9AB2FB681A85A3
:10397000FB685B8D9BB2013B9AB2FB685A85FB6882
:103980001B685B6903F00403042B1BD1FB681B8DD0
:10399000002B17D0FB685B6A1A78FB681B681A61FA
:1039A000FB685B6A5A1CFB685A62FB681B8D013B13
:1039B0009AB2FB681A85FB685B8D9BB2013B9AB299
:1039C000FB685A85FB681B8D002BAAD17A69B96AFE
:1039D000F86800F079FD0346002B0DD0FB681B6CE6
:1039E000042B07D1FB681B681A68FB681B6842F44C
:1039F00000721A60012316E0FB681B681A68FB68F6
:103A00001B6842F400721A60FB68202283F83D2094
:103A1000FB68002283F83E20FB68002283F83C20EC
:103A2000002300E0022318461837BD4680BD00BFC2
:103A3000020010000000FFFF80B58CB002AFF860FC
:103A4000084611461A4603467B810B463B811346C6
:103A5000FB8000233B62FFF7A7FA7862FB6893F8CC
:103A60003D30DBB2202B40F044827B6A0093192367
:103A700001228249F86800F0C5FB0346002B01D003
:103A8000022337E2FB6893F83C30012B01D102237B
:103A900030E2FB68012283F83C20FB681B681B684E
:103AA00003F00103012B07D0FB681B681A68FB6851
:103AB0001B6842F001021A60FB681B681A68FB6809
:103AC0001B6822F400621A60FB68222283F83D2002
:103AD000FB68402283F83E20FB6800221A64FB68E2
:103AE0003A6B5A62FB68BA8E5A85FB685B8D9AB254
:103AF000FB681A85FB68624ADA62F8883A89798934
:103B00007B6A0193BB6B00930346F86800F092FA5E
:103B10000346002B01D00123ECE1FB681B8D002B39
:103B200013D10023FB61FB681B685B69FB61FB68C9
:103B30001B689B69FB61FB69FB681B681A68FB6873
:103B40001B6842F400721A60C0E1FB681B8D012BF8
:103B50001ED1FB681B681A68FB681B6822F4806230
:103B60001A6072B600BF0023BB61FB681B685B690B
:103B7000BB61FB681B689B69BB61BB69FB681B6819
:103B80001A68FB681B6842F400721A6062B635E07E
:103B9000FB681B8D022B1ED1FB681B681A68FB6833
:103BA0001B6842F400621A6072B600BF00237B619A
:103BB000FB681B685B697B61FB681B689B697B61B9
:103BC0007B69FB681B681A68FB681B6822F48062CB
:103BD0001A6062B612E0FB681B681A68FB681B6813
:103BE00042F480621A6000233B61FB681B685B69DA
:103BF0003B61FB681B689B693B613B6966E1FB6855
:103C00001B8D032B00F21F81FB681B8D012B23D121
:103C10007A6AB96BF86800F09FFC0346002B01D06C
:103C2000012367E1FB681B681A69FB685B6AD2B213
:103C30001A70FB685B6A5A1CFB685A62FB681B8D32
:103C4000013B9AB2FB681A85FB685B8D9BB2013B16
:103C50009AB2FB685A8539E1FB681B8D022B52D161
:103C60007B6A0093BB6B00220649F86800F0CAFA31
:103C70000346002B08D001233CE100BF02001000E6
:103C80000000FFFF0400010072B600BFFB681B6864
:103C90001A68FB681B6842F400721A60FB681B68B4
:103CA0001A69FB685B6AD2B21A70FB685B6A5A1CBD
:103CB000FB685A62FB681B8D013B9AB2FB681A8550
:103CC000FB685B8D9BB2013B9AB2FB685A8562B67A
:103CD00000BFFB681B681A69FB685B6AD2B21A7086
:103CE000FB685B6A5A1CFB685A62FB681B8D013BD0
:103CF0009AB2FB681A85FB685B8D9BB2013B9AB256
:103D0000FB685A85E2E07B6A0093BB6B00227B492B
:103D1000F86800F077FA0346002B01D00123E9E0B0
:103D2000FB681B681A68FB681B6822F480621A60D3
:103D300072B600BFFB681B681A69FB685B6AD2B287
:103D40001A70FB685B6A5A1CFB685A62FB681B8D21
:103D5000013B9AB2FB681A85FB685B8D9BB2013B05
:103D60009AB2FB685A85664B1B68DB08654AA2FB62
:103D700003231A0A13469B001344DA00D31A3B624A
:103D80003B6A013B3B623B6A002B18D1FB68002277
:103D90001A63FB68202283F83D20FB68002283F829
:103DA0003E20FB681B6C43F02002FB681A6462B67D
:103DB00000BFFB68002283F83C2001239AE0FB68E7
:103DC0001B685B6903F00403042BD9D1FB681B68F3
:103DD0001A68FB681B6842F400721A60FB681B6873
:103DE0001A69FB685B6AD2B21A70FB685B6A5A1C7C
:103DF000FB685A62FB681B8D013B9AB2FB681A850F
:103E0000FB685B8D9BB2013B9AB2FB685A8562B638
:103E100000BFFB681B681A69FB685B6AD2B21A7044
:103E2000FB685B6A5A1CFB685A62FB681B8D013B8E
:103E30009AB2FB681A85FB685B8D9BB2013B9AB214
:103E4000FB685A8542E07A6AB96BF86800F084FB37
:103E50000346002B01D001234CE0FB681B681A6964
:103E6000FB685B6AD2B21A70FB685B6A5A1CFB681B
:103E70005A62FB681B8D013B9AB2FB681A85FB688E
:103E80005B8D9BB2013B9AB2FB685A85FB681B684D
:103E90005B6903F00403042B18D1FB681B681A69E3
:103EA000FB685B6AD2B21A70FB685B6A5A1CFB68DB
:103EB0005A62FB681B8D013B9AB2FB681A85FB684E
:103EC0005B8D9BB2013B9AB2FB685A85FB681B8DE8
:103ED000002B7FF494AEFB68202283F83D20FB6822
:103EE000002283F83E20FB68002283F83C20002358
:103EF00000E0022318462837BD4680BD04000100BB
:103F00000800002089B5F81480B588B002AFF860C9
:103F1000084611461A4603467B810B463B811346F1
:103F2000FB80FB681B681A68FB681B6842F48072A0
:103F30001A607B6A00933B6A00224FF00111F86817
:103F400000F060F90346002B0DD0FB681B681B686E
:103F500003F48073B3F5807F03D1FB684FF40072E4
:103F60001A6403235FE07B89DBB21A46FB681B6897
:103F700002F0FE021A617B6A3A6A2D49F86800F085
:103F8000BBF90346002B01D001234CE000237B61E9
:103F9000FB681B685B697B61FB681B689B697B61D5
:103FA0007B697A6A396AF86800F046FA0346002BA2
:103FB0000DD0FB681B6C042B07D1FB681B681A68CB
:103FC000FB681B6842F400721A6001232BE0FB8837
:103FD000012B05D13B89DAB2FB681B681A6121E02D
:103FE0003B891B0A9BB2DAB2FB681B681A617A6ACA
:103FF000396AF86800F020FA0346002B0DD0FB6800
:104000001B6C042B07D1FB681B681A68FB681B68D4
:1040100042F400721A60012305E03B89DAB2FB68C2
:104020001B681A61002318461837BD4680BD00BFC3
:104030000200010080B588B002AFF8600846114662
:104040001A4603467B810B463B811346FB80FB6887
:104050001B681A68FB681B6842F480621A60FB6880
:104060001B681A68FB681B6842F480721A607B6ADE
:1040700000933B6A00224FF00111F86800F0C2F88B
:104080000346002B0DD0FB681B681B6803F480738C
:10409000B3F5807F03D1FB684FF400721A640323E9
:1040A000AAE07B89DBB21A46FB681B6802F0FE02BD
:1040B0001A617B6A3A6A5249F86800F01DF90346B2
:1040C000002B01D0012397E000237B61FB681B6874
:1040D0005B697B61FB681B689B697B617B697A6AB2
:1040E000396AF86800F0A8F90346002B0DD0FB6888
:1040F0001B6C042B07D1FB681B681A68FB681B68E4
:1041000042F400721A60012376E0FB88012B05D18E
:104110003B89DAB2FB681B681A6121E03B891B0A04
:104120009BB2DAB2FB681B681A617A6A396AF8686E
:1041300000F082F90346002B0DD0FB681B6C042BAA
:1041400007D1FB681B681A68FB681B6842F40072A1
:104150001A60012350E03B89DAB2FB681B681A61E0
:104160007A6A396AF86800F067F90346002B0DD0C7
:10417000FB681B6C042B07D1FB681B681A68FB6883
:104180001B6842F400721A60012335E0FB681B686B
:104190001A68FB681B6842F480721A607B6A00939D
:1041A0003B6A00224FF00111F86800F02BF803463B
:1041B000002B0DD0FB681B681B6803F48073B3F5FC
:1041C000807F03D1FB684FF400721A64032313E06D
:1041D0007B89DBB243F00103DAB2FB681B681A612A
:1041E0007B6A3A6A0649F86800F086F80346002BB5
:1041F00001D0012300E0002318461837BD4680BDDA
:104200000200010080B584B000AFF860B9603B6087
:104210001346FB7148E03B68B3F1FF3F44D0FEF723
:10422000C3FE0246BB69D31A3A689A4202D33B687E
:10423000002B39D1BB681B0CDBB2012B0DD1FB6805
:104240001B685B69DA43BB6813409BB2002B0CBF51
:1042500001230023DBB21A460CE0FB681B689B6954
:10426000DA43BB6813409BB2002B0CBF0123002331
:10427000DBB21A46FB799A4216D1FB6800221A6318
:10428000FB68202283F83D20FB68002283F83E2053
:10429000FB681B6C43F02002FB681A64FB68002279
:1042A00083F83C20012323E0BB681B0CDBB2012B0D
:1042B0000DD1FB681B685B69DA43BB6813409BB296
:1042C000002B0CBF01230023DBB21A460CE0FB6875
:1042D0001B689B69DA43BB6813409BB2002B0CBF81
:1042E00001230023DBB21A46FB799A4293D00023C4
:1042F00018461037BD4680BD80B584B000AFF86069
:10430000B9607A603B6071E0FB681B685B6903F42D
:104310008063B3F5806F23D1FB681B681A68FB6864
:104320001B6842F400721A60FB681B686FF48062BD
:104330005A61FB6800221A63FB68202283F83D2043
:10434000FB68002283F83E20FB681B6C43F00402EC
:10435000FB681A64FB68002283F83C20012367E0B5
:104360007B68B3F1FF3F41D0FEF71EFE02463B687B
:10437000D31A7A689A4202D37B68002B36D1BB6885
:104380001B0CDBB2012B0CD1FB681B685B69DA43A9
:10439000BB6813409BB2002B14BF01230023DBB288
:1043A0000BE0FB681B689B69DA43BB6813409BB258
:1043B000002B14BF01230023DBB2002B16D0FB68B7
:1043C00000221A63FB68202283F83D20FB6800224C
:1043D00083F83E20FB681B6C43F02002FB681A64E4
:1043E000FB68002283F83C20012321E0BB681B0C02
:1043F000DBB2012B0CD1FB681B685B69DA43BB683D
:1044000013409BB2002B14BF01230023DBB20BE04F
:10441000FB681B689B69DA43BB6813409BB2002BA7
:1044200014BF01230023DBB2002B7FF46DAF002308
:1044300018461037BD4680BD80B584B000AFF86027
:10444000B9607A6034E0F86800F0E3F80346002BC6
:1044500001D0012334E0BB68B3F1FF3F28D0FEF761
:10446000A3FD02467B68D31ABA689A4202D3BB689E
:10447000002B1DD1FB681B685B6903F08003802B58
:1044800016D0FB6800221A63FB68202283F83D20C7
:10449000FB68002283F83E20FB681B6C43F020027F
:1044A000FB681A64FB68002283F83C20012307E0C4
:1044B000FB681B685B6903F08003802BC3D100237A
:1044C00018461037BD4680BD80B584B000AFF86097
:1044D000B9607A6034E0F86800F09BF80346002B7E
:1044E00001D0012334E0BB68B3F1FF3F28D0FEF7D1
:1044F0005BFD02467B68D31ABA689A4202D3BB6856
:10450000002B1DD1FB681B685B6903F00403042BBF
:1045100016D0FB6800221A63FB68202283F83D2036
:10452000FB68002283F83E20FB681B6C43F02002EE
:10453000FB681A64FB68002283F83C20012307E033
:10454000FB681B685B6903F00403042BC3D10023E1
:1045500018461037BD4680BD80B584B000AFF86006
:10456000B9607A6049E0FB681B685B6903F010037F
:10457000102B19D1FB681B686FF010025A61FB68A1
:1045800000221A63FB68202283F83D20FB6800228A
:1045900083F83E20FB681A6CFB681A64FB680022F3
:1045A00083F83C20012330E0FEF7FEFC02467B68E6
:1045B000D31ABA689A4202D3BB68002B1DD1FB689C
:1045C0001B685B6903F04003402B16D0FB68002298
:1045D0001A63FB68202283F83D20FB68002283F8E1
:1045E0003E20FB681B6C43F02002FB681A64FB68EA
:1045F000002283F83C20012307E0FB681B685B690D
:1046000003F04003402BAED1002318461037BD46BF
:1046100080BD80B483B000AF78607B681B685B6945
:1046200003F48063B3F5806F1BD17B681B686FF464
:1046300080625A617B6800221A637B68202283F8BB
:104640003D207B68002283F83E207B681B6C43F092
:1046500004027B681A647B68002283F83C200123F3
:1046600000E0002318460C37BD4680BC70470000B0
:1046700080B400AF034B01221A6000BFBD4680BC6E
:10468000704700BF20000E4280B586B000AF786052
:104690007B68002B01D1012372E27B681B6803F069
:1046A0000103002B00F08780924B5B6803F00C0342
:1046B000042B0CD08F4B5B6803F00C03082B12D13A
:1046C0008C4B5B6803F48033B3F5803F0BD1894B8F
:1046D0001B6803F40033002B6CD07B685B68002BF5
:1046E00068D101234CE27B685B68B3F5803F06D15B
:1046F000804B1B687F4A43F4803313602EE07B6855
:104700005B68002B0CD17B4B1B687A4A23F4803307
:104710001360784B1B68774A23F4802313601DE0F5
:104720007B685B68B3F5A02F0CD1724B1B68714A94
:1047300043F4802313606F4B1B686E4A43F480334D
:1047400013600BE06B4B1B686A4A23F480331360E1
:10475000684B1B68674A23F4802313607B685B689F
:10476000002B13D0FEF720FC386108E0FEF71CFC9C
:1047700002463B69D31A642B01D9032300E25D4B47
:104780001B6803F40033002BF0D014E0FEF70CFCA0
:10479000386108E0FEF708FC02463B69D31A642B37
:1047A00001D90323ECE1534B1B6803F40033002BC6
:1047B000F0D100E000BF7B681B6803F00203002B10
:1047C00063D04C4B5B6803F00C03002B0BD0494BC0
:1047D0005B6803F00C03082B1CD1464B5B6803F4A9
:1047E0008033002B16D1434B1B6803F00203002BD0
:1047F00005D07B681B69012B01D00123C0E13D4B33
:104800001B6823F0F8027B685B69DB0039491343BE
:104810000B603AE07B681B69002B20D0364B0122ED
:104820001A60FEF7C1FB386108E0FEF7BDFB0246E7
:104830003B69D31A022B01D90323A1E12D4B1B683D
:1048400003F00203002BF0D02A4B1B6823F0F80280
:104850007B685B69DB00274913430B6015E0264B3F
:1048600000221A60FEF7A0FB386108E0FEF79CFB0F
:1048700002463B69D31A022B01D9032380E11D4B69
:104880001B6803F00203002BF0D17B681B6803F068
:104890000803002B3AD07B689B69002B19D0174B7B
:1048A00001221A60FEF780FB386108E0FEF77CFB0E
:1048B00002463B69D31A022B01D9032360E10D4B59
:1048C0005B6A03F00203002BF0D0012000F0CEFA67
:1048D0001CE00A4B00221A60FEF766FB38610FE00D
:1048E000FEF762FB02463B69D31A022B08D9032369
:1048F00046E100BF001002400000424280044242F4
:10490000924B5B6A03F00203002BE9D17B681B68C2
:1049100003F00403002B00F0A6800023FB758B4BF3
:10492000DB6903F08053002B0DD1884BDB69874A8C
:1049300043F08053D361854BDB6903F08053BB6048
:10494000BB680123FB75824B1B6803F48073002B4B
:1049500018D17F4B1B687E4A43F480731360FEF7C7
:1049600023FB386108E0FEF71FFB02463B69D31AC0
:10497000642B01D9032303E1754B1B6803F4807397
:10498000002BF0D07B68DB68012B06D16F4B1B6AD4
:104990006E4A43F0010313622DE07B68DB68002B55
:1049A0000CD16A4B1B6A694A23F001031362674BFF
:1049B0001B6A664A23F0040313621CE07B68DB6811
:1049C000052B0CD1614B1B6A604A43F00403136250
:1049D0005E4B1B6A5D4A43F0010313620BE05B4BC5
:1049E0001B6A5A4A23F001031362584B1B6A574A49
:1049F00023F0040313627B68DB68002B15D0FEF7FD
:104A0000D3FA38610AE0FEF7CFFA02463B69D31ABF
:104A100041F28832934201D90323B1E04B4B1B6A28
:104A200003F00203002BEED014E0FEF7BDFA38616C
:104A30000AE0FEF7B9FA02463B69D31A41F288321E
:104A4000934201D903239BE0404B1B6A03F002030E
:104A5000002BEED1FB7D012B05D13C4BDB693B4AA2
:104A600023F08053D3617B68DB69002B00F08780E3
:104A7000364B5B6803F00C03082B61D07B68DB6965
:104A8000022B46D1334B00221A60FEF78DFA3861B3
:104A900008E0FEF789FA02463B69D31A022B01D9D6
:104AA00003236DE0294B1B6803F00073002BF0D14A
:104AB0007B681B6AB3F5803F08D1244B5B6823F405
:104AC00000327B689B68214913434B601F4B5B6836
:104AD00023F474127B68196A7B685B6A0B431B4979
:104AE00013434B601B4B01221A60FEF75DFA3861DD
:104AF00008E0FEF759FA02463B69D31A022B01D9A6
:104B000003233DE0114B1B6803F00073002BF0D032
:104B100035E0104B00221A60FEF746FA386108E0D3
:104B2000FEF742FA02463B69D31A022B01D903234E
:104B300026E0064B1B6803F00073002BF0D11EE04B
:104B40007B68DB69012B07D1012319E000100240CB
:104B500000700040600042420B4B5B68FB60FB68EA
:104B600003F480327B681B6A9A4206D1FB6803F427
:104B700070127B685B6A9A4201D0012300E0002337
:104B800018461837BD4680BD0010024080B584B07D
:104B900000AF786039607B68002B01D10123D0E041
:104BA0006A4B1B6803F007033A689A4210D9674BB7
:104BB0001B6823F0070265493B6813430B60634B96
:104BC0001B6803F007033A689A4201D00123B8E05A
:104BD0007B681B6803F00203002B20D07B681B68F6
:104BE00003F00403002B05D0594B5B68584A43F48B
:104BF000E06353607B681B6803F00803002B05D05B
:104C0000534B5B68524A43F460535360504B5B68AC
:104C100023F0F0027B689B684D4913434B607B682F
:104C20001B6803F00103002B40D07B685B68012BFD
:104C300007D1474B1B6803F40033002B15D1012328
:104C40007FE07B685B68022B07D1414B1B6803F058
:104C50000073002B09D1012373E03D4B1B6803F067
:104C60000203002B01D101236BE0394B5B6823F079
:104C700003027B685B68364913434B60FEF794F987
:104C8000F8600AE0FEF790F90246FB68D31A41F299
:104C90008832934201D9032353E02D4B5B6803F024
:104CA0000C027B685B689B009A42EBD1274B1B6828
:104CB00003F007033A689A4210D2244B1B6823F092
:104CC000070222493B6813430B60204B1B6803F02B
:104CD00007033A689A4201D0012332E07B681B68DF
:104CE00003F00403002B08D0194B5B6823F4E06247
:104CF0007B68DB68164913434B607B681B6803F0D5
:104D00000803002B09D0124B5B6823F460527B68C8
:104D10001B69DB000E4913434B6000F021F802468B
:104D20000B4B5B681B0903F00F030A49CB5C22FAAB
:104D300003F3094A1360094B1B681846FEF7F2F8A3
:104D4000002318461037BD4680BD00BF002002403A
:104D50000010024080D20008080000200C00002053
:104D600080B487B000AF0023FB600023BB6000234A
:104D70007B6100237B6000233B611E4B5B68FB6013
:104D8000FB6803F00C03042B02D0082B03D027E0B0
:104D9000194B3B6127E0FB689B0C03F00F03174A9C
:104DA000D35C7B60FB6803F48033002B10D0114B85
:104DB0005B685B0C03F00103114AD35CBB607B684A
:104DC0000D4A03FB02F2BB68B2FBF3F37B6104E024
:104DD0007B680C4A02FB03F37B617B693B6102E069
:104DE000054B3B6100BF3B6918461C37BD4680BC84
:104DF000704700BF0010024000127A0098D20008ED
:104E0000A8D2000800093D0080B400AF024B1B6827
:104E10001846BD4680BC70470800002080B500AF32
:104E2000FFF7F2FF0246054B5B681B0A03F007031E
:104E30000349CB5C22FA03F3184680BD0010024000
:104E400090D2000880B500AFFFF7DEFF0246054BA9
:104E50005B68DB0A03F007030349CB5C22FA03F328
:104E6000184680BD0010024090D2000880B485B082
:104E700000AF78600A4B1B680A4AA2FB03235B0A57
:104E80007A6802FB03F3FB6000BFFB685A1EFA60FE
:104E9000002BF9D100BF00BF1437BD4680BC70475E
:104EA00008000020D34D621080B586B000AF786056
:104EB00000233B610023FB607B681B6803F0010358
:104EC000002B7DD00023FB754F4BDB6903F0805333
:104ED000002B0DD14C4BDB694B4A43F08053D3611F
:104EE000494BDB6903F08053BB60BB680123FB7552
:104EF000464B1B6803F48073002B18D1434B1B688F
:104F0000424A43F480731360FEF74EF8386108E0BC
:104F1000FEF74AF802463B69D31A642B01D90323F2
:104F20006DE03A4B1B6803F48073002BF0D0364BD6
:104F30001B6A03F44073FB60FB68002B2ED07B6878
:104F40005B6803F44073FA689A4227D02E4B1B6AC1
:104F500023F44073FB602E4B01221A602C4B00227D
:104F60001A60294AFB681362FB6803F00103002BF7
:104F700014D0FEF719F838610AE0FEF715F802467A
:104F80003B69D31A41F28832934201D9032336E0B8
:104F90001D4B1B6A03F00203002BEED01A4B1B6A59
:104FA00023F440727B685B68174913430B62FB7DF7
:104FB000012B05D1144BDB69134A23F08053D361D5
:104FC0007B681B6803F00203002B08D00E4B5B6864
:104FD00023F440427B689B680B4913434B607B681A
:104FE0001B6803F01003002B08D0074B5B6823F409
:104FF00080027B68DB68044913434B60002318463A
:105000001837BD4680BD00BF001002400070004050
:105010004004424280B588B000AF786000237B61D5
:105020000023FB6100233B610023FB600023BB6185
:105030007B68102B0AD07B68102B00F28A807B687B
:10504000012B45D07B68022B75D082E0464B5B6814
:10505000FB60454B1B6803F08073002B7BD0FB6823
:105060009B0C03F00F03414AD35C3B61FB6803F4E4
:105070008033002B15D03C4B5B685B0C03F00103C5
:105080003B4AD35C7B61FB6803F48033002B0DD07B
:10509000384A7B69B2FBF3F23B6902FB03F3FB6125
:1050A00004E03B69344A02FB03F3FB612E4B5B686F
:1050B00003F48003B3F5800F02D1FB69BB614AE0C2
:1050C000FB695B002D4AA2FB03235B08BB6142E046
:1050D000254B1B6AFB60FB6803F44073B3F5807FCC
:1050E00008D1FB6803F00203002B03D04FF4004308
:1050F000BB611FE0FB6803F44073B3F5007F09D187
:10510000194B5B6A03F00203002B03D049F64043BE
:10511000BB610FE0FB6803F44073B3F5407F1CD123
:10512000114B1B6803F40033002B16D04FF22443BD
:10513000BB6112E011E0FFF785FE02460A4B5B6897
:105140009B0B03F0030301335B00B2FBF3F3BB6182
:1051500004E000BF02E000BF00E000BFBB691846EA
:105160002037BD4680BD00BF00100240ACD2000811
:10517000BCD2000800127A0000093D00ABAAAAAA1E
:1051800080B584B000AF78600023FB607B68002BA3
:1051900001D101237AE07B685B7CDBB2002B05D177
:1051A0007B6800221A747868FDF7DCFC7B680222B9
:1051B0005A74786800F0CCFB0346002B04D07B685F
:1051C00004225A74012361E0786800F085FC0346EC
:1051D000002B04D07B6804225A74012356E07B68BC
:1051E0001B685A687B681B6822F007025A607B685C
:1051F0009B68002B05D0274B1B6B264A23F001032D
:105200001363244BDB6A23F460727B689B6821493B
:105210001343CB627B685B68B3F1FF3F03D07B68CD
:105220005B68FB600EE00120FFF7F4FEF860FB68AE
:10523000002B04D17B6804225A74012326E0FB680A
:10524000013BFB60FB681A0C7B681B6802F00F02D5
:105250009A607B681B68FA6892B2DA60786800F03E
:1052600063FC0346002B04D07B6804225A7401239C
:105270000CE07B680022DA737B6801225A737B683A
:1052800001229A737B6801225A7400231846103752
:10529000BD4680BD006C004090B587B000AFF8609F
:1052A000B9607A6000237B6100233B61FB68002BBF
:1052B00002D0BB68002B01D1012380E0FB681B7C7E
:1052C000012B01D102237AE0FB6801221A74FB68EA
:1052D00002225A747B68002B13D1BB681B781A46D4
:1052E0004FF4616303FB02F2BB685B7819460B461F
:1052F0001B015B1A9B001344BA68927813447B61CC
:105300001EE0BB681B78184600F053FC03461A46A3
:105310004FF4616303FB02F4BB685B78184600F04E
:1053200048FC03461A4613461B019B1A9B001C446B
:10533000BB689B78184600F03CFC034623447B6125
:105340007969F86800F061FB0346002B07D0FB6821
:1053500004225A74FB6800221A7401232FE0FB68B0
:105360001B685A68FB681B6822F005025A60F868DF
:1053700000F072FB38613B69B3F1FF3F18D03A6926
:105380007B699A4214D23B6903F5A83303F5C073D5
:105390003B613969F86800F078FB0346002B07D0C1
:1053A000FB6804225A74FB6800221A74012306E089
:1053B000FB6801225A74FB6800221A740023184605
:1053C0001C37BD4690BD000080B588B000AFF860C6
:1053D000B9607A600023BB610023FB6100237B611D
:1053E00000233B61FB68002B02D0BB68002B01D17E
:1053F0000123B5E0FB681B685B6803F00403002B26
:1054000001D00123ACE0F86800F0CFFAB861BB69C5
:10541000554AA2FB0323DB0A3B61BA69524BA3FB4B
:105420000213DB0A4FF4616101FB03F3D31A4F4A05
:10543000A2FB03235B09DAB2BB685A70BB694A4A14
:10544000A2FB0312D20A4FF4616101FB02F29A1A25
:10545000464BA3FB021359090B461B015B1A9B0029
:10546000D11ACAB2BB689A703B69172B55D93B69F0
:105470003F4AA2FB03231B097B6139693C4BA3FB19
:1054800001231A0913465B001344DB00CA1AD2B287
:10549000BB681A70F86800F0DFFAF861FB69B3F1D5
:1054A000FF3F08D0FA69BB699A4204D9FA69BB691F
:1054B000D31AFB6102E04FF0FF33FB617B692D4A99
:1054C00002FB03F3BA69D31ABB61B969F86800F04B
:1054D0009CFA0346002B01D0012341E0FB69B3F1A4
:1054E000FF3F0CD0FA69BB691344FB61F969F868A6
:1054F00000F0CBFA0346002B0AD0012330E0F96913
:10550000F86800F0C2FA0346002B01D0012327E01F
:105510007969F86800F06AFB03E03B69DAB2BB68BE
:105520001A707B68002B1AD0BB681B78184600F0F5
:1055300023FB03461A46BB681A70BB685B781846A3
:1055400000F01AFB03461A46BB685A70BB689B788A
:10555000184600F011FB03461A46BB689A700023F8
:1055600018462037BD4680BDC5B3A291898888887A
:10557000ABAAAAAA8051010080B588B000AFF8603C
:10558000B9607A600023FB610023BB6100237B616B
:10559000FB68002B02D0BB68002B01D1012397E0F0
:1055A000FB681B7C012B01D1022391E0FB680122E7
:1055B0001A74FB6802225A747B68002B0CD1BB68FA
:1055C000DA78FB68DA73BB685A78FB685A73BB6891
:1055D0009A78FB689A731AE0BB68DB78184600F08B
:1055E000E8FA03461A46FB68DA73BB685B7818462C
:1055F00000F0DFFA03461A46FB685A73BB689B78D3
:10560000184600F0D6FA03461A46FB689A73FB6800
:10561000DB7B1846FB68597BFB689B7B1A4600F0D6
:10562000C1FB03461A46FB681A73FB681A7BBB680A
:105630001A70F86800F0B9F9F861FB69264AA2FB14
:105640000323DB0A7B617B69182B3AD97B69234AE8
:10565000A2FB03231B09224A02FB03F3FA69D31AB4
:10566000FB61F969F86800F0D0F90346002B07D018
:10567000FB6804225A74FB6800221A74012327E095
:10568000F86800F0E9F9B861BB69B3F1FF3F18D0E1
:10569000BA69FB699A4214D2BB6903F5A83303F5D2
:1056A000C073BB61B969F86800F0EFF90346002BDD
:1056B00007D0FB6804225A74FB6800221A74012385
:1056C00006E0FB6801225A74FB6800221A7400236A
:1056D00018462037BD4680BDC5B3A291ABAAAAAA81
:1056E0008051010080B586B000AFF860B9607A6083
:1056F00007F1140300210A461A800A469A70FB68D3
:10570000002B02D0BB68002B01D101233AE007F146
:10571000140300221946F868FFF756FE0346002BD3
:1057200001D001232EE0FB681A7BBB681A70FB686E
:10573000DA7BBB68DA70FB685A7BBB685A70FB681F
:105740009A7BBB689A707B68002B1AD0BB68DB78A9
:10575000184600F011FA03461A46BB68DA70BB68B7
:105760005B78184600F008FA03461A46BB685A7080
:10577000BB689B78184600F0FFF903461A46BB68E1
:105780009A70002318461837BD4680BD90B589B081
:1057900000AFF860B9607A600023FB6107F1140381
:1057A00000210A461A800A469A70FB68002B02D034
:1057B000BB68002B01D1012399E0FB681B7C012B06
:1057C00001D1022393E0FB6801221A74FB680222D4
:1057D0005A7407F1140300221946F868FFF7F4FD24
:1057E0000346002B01D0012381E03B7D1A464FF494
:1057F000616303FB02F27B7D19460B461B015B1ABA
:105800009B001344BA7D1344BB617B68002B13D10A
:10581000BB681B781A464FF4616303FB02F2BB6856
:105820005B7819460B461B015B1A9B001344BA6850
:1058300092781344FB611EE0BB681B78184600F0A9
:10584000B8F903461A464FF4616303FB02F4BB68E0
:105850005B78184600F0ADF903461A4613461B0163
:105860009B1A9B001C44BB689B78184600F0A1F96A
:1058700003462344FB61FA69BB699A4205D2FB697E
:1058800003F5A83303F5C073FB61F969F86800F00C
:10589000FCF80346002B07D0FB6804225A74FB680F
:1058A00000221A74012322E0FB681B685A68FB6817
:1058B0001B6822F002025A60FB681B681A68FB68CA
:1058C0001B6842F002021A600B4B1B680A4A43F441
:1058D00000331360084B9B68074A43F4003393601E
:1058E000FB6801225A74FB6800221A7400231846D0
:1058F0002437BD4690BD00BF0004014080B582B092
:1059000000AF78607B681B681B6803F00203002B04
:1059100011D07B681B685B6803F00203002B0AD080
:105920007868FCF7E1FD7B681B685A687B681B6838
:1059300022F002025A60054B4FF400325A617B6834
:1059400001225A7400BF0837BD4680BD00040140E3
:1059500080B584B000AF78600023FB607B68002BCB
:1059600001D101231DE07B681B685A687B681B68B6
:1059700022F008025A60FDF717FBF86009E0FDF716
:1059800013FB0246FB68D31AB3F57A7F01D90323D0
:1059900007E07B681B685B6803F00803002BEED010
:1059A000002318461037BD4680BD80B487B000AFD5
:1059B000786000237B8200233B820023FB8100234D
:1059C0007B617B681B689B697B827B681B68DB69EA
:1059D000FB817B681B689B693B827A8A3B8A9A427F
:1059E00008D03B8A1A047B681B68DB699BB21343AF
:1059F0007B6104E07B8A1A04FB8913437B617B692A
:105A000018461C37BD4680BC704780B584B000AFD7
:105A1000786039600023FB73786800F05DF8034616
:105A2000002B02D00123FB7311E07B681B683A68EE
:105A3000120C9A617B681B683A6892B2DA617868E6
:105A400000F072F80346002B01D00123FB73FB7BAF
:105A500018461037BD4680BD80B485B000AF786071
:105A60000023FB810023BB817B681B681B6AFB81D1
:105A70007B681B685B6ABB81FB891A04BB89134383
:105A800018461437BD4680BC704780B584B000AF5F
:105A9000786039600023FB73786800F01DF80346D6
:105AA000002B02D00123FB7311E07B681B683A686E
:105AB000120C1A627B681B683A6892B25A62786864
:105AC00000F032F80346002B01D00123FB73FB7B6F
:105AD00018461037BD4680BD80B584B000AF7860F1
